{
  "_format": "hh-sol-artifact-1",
  "contractName": "MelkeyToken",
  "sourceName": "contracts/MelkeyToken.sol",
  "abi": [
    {
      "anonymous": false,
      "inputs": [
        {
          "indexed": true,
          "internalType": "address",
          "name": "owner",
          "type": "address"
        },
        {
          "indexed": true,
          "internalType": "address",
          "name": "spender",
          "type": "address"
        },
        {
          "indexed": false,
          "internalType": "uint256",
          "name": "value",
          "type": "uint256"
        }
      ],
      "name": "Approval",
      "type": "event"
    },
    {
      "anonymous": false,
      "inputs": [
        {
          "indexed": true,
          "internalType": "address",
          "name": "previousOwner",
          "type": "address"
        },
        {
          "indexed": true,
          "internalType": "address",
          "name": "newOwner",
          "type": "address"
        }
      ],
      "name": "OwnershipTransferred",
      "type": "event"
    },
    {
      "anonymous": false,
      "inputs": [
        {
          "indexed": true,
          "internalType": "address",
          "name": "from",
          "type": "address"
        },
        {
          "indexed": true,
          "internalType": "address",
          "name": "to",
          "type": "address"
        },
        {
          "indexed": false,
          "internalType": "uint256",
          "name": "value",
          "type": "uint256"
        }
      ],
      "name": "Transfer",
      "type": "event"
    },
    {
      "inputs": [
        {
          "internalType": "address",
          "name": "owner",
          "type": "address"
        },
        {
          "internalType": "address",
          "name": "spender",
          "type": "address"
        }
      ],
      "name": "allowance",
      "outputs": [
        {
          "internalType": "uint256",
          "name": "",
          "type": "uint256"
        }
      ],
      "stateMutability": "view",
      "type": "function"
    },
    {
      "inputs": [
        {
          "internalType": "address",
          "name": "spender",
          "type": "address"
        },
        {
          "internalType": "uint256",
          "name": "amount",
          "type": "uint256"
        }
      ],
      "name": "approve",
      "outputs": [
        {
          "internalType": "bool",
          "name": "",
          "type": "bool"
        }
      ],
      "stateMutability": "nonpayable",
      "type": "function"
    },
    {
      "inputs": [
        {
          "internalType": "address",
          "name": "account",
          "type": "address"
        }
      ],
      "name": "balanceOf",
      "outputs": [
        {
          "internalType": "uint256",
          "name": "",
          "type": "uint256"
        }
      ],
      "stateMutability": "view",
      "type": "function"
    },
    {
      "inputs": [
        {
          "internalType": "uint256",
          "name": "amount",
          "type": "uint256"
        }
      ],
      "name": "burn",
      "outputs": [],
      "stateMutability": "nonpayable",
      "type": "function"
    },
    {
      "inputs": [],
      "name": "decimals",
      "outputs": [
        {
          "internalType": "uint8",
          "name": "",
          "type": "uint8"
        }
      ],
      "stateMutability": "view",
      "type": "function"
    },
    {
      "inputs": [
        {
          "internalType": "address",
          "name": "spender",
          "type": "address"
        },
        {
          "internalType": "uint256",
          "name": "subtractedValue",
          "type": "uint256"
        }
      ],
      "name": "decreaseAllowance",
      "outputs": [
        {
          "internalType": "bool",
          "name": "",
          "type": "bool"
        }
      ],
      "stateMutability": "nonpayable",
      "type": "function"
    },
    {
      "inputs": [],
      "name": "getOwner",
      "outputs": [
        {
          "internalType": "address",
          "name": "",
          "type": "address"
        }
      ],
      "stateMutability": "nonpayable",
      "type": "function"
    },
    {
      "inputs": [
        {
          "internalType": "address",
          "name": "spender",
          "type": "address"
        },
        {
          "internalType": "uint256",
          "name": "addedValue",
          "type": "uint256"
        }
      ],
      "name": "increaseAllowance",
      "outputs": [
        {
          "internalType": "bool",
          "name": "",
          "type": "bool"
        }
      ],
      "stateMutability": "nonpayable",
      "type": "function"
    },
    {
      "inputs": [
        {
          "internalType": "address",
          "name": "_to",
          "type": "address"
        },
        {
          "internalType": "uint256",
          "name": "_amount",
          "type": "uint256"
        }
      ],
      "name": "mint",
      "outputs": [],
      "stateMutability": "nonpayable",
      "type": "function"
    },
    {
      "inputs": [],
      "name": "name",
      "outputs": [
        {
          "internalType": "string",
          "name": "",
          "type": "string"
        }
      ],
      "stateMutability": "view",
      "type": "function"
    },
    {
      "inputs": [],
      "name": "owner",
      "outputs": [
        {
          "internalType": "address",
          "name": "",
          "type": "address"
        }
      ],
      "stateMutability": "view",
      "type": "function"
    },
    {
      "inputs": [],
      "name": "renounceOwnership",
      "outputs": [],
      "stateMutability": "nonpayable",
      "type": "function"
    },
    {
      "inputs": [],
      "name": "symbol",
      "outputs": [
        {
          "internalType": "string",
          "name": "",
          "type": "string"
        }
      ],
      "stateMutability": "view",
      "type": "function"
    },
    {
      "inputs": [],
      "name": "totalSupply",
      "outputs": [
        {
          "internalType": "uint256",
          "name": "",
          "type": "uint256"
        }
      ],
      "stateMutability": "view",
      "type": "function"
    },
    {
      "inputs": [
        {
          "internalType": "address",
          "name": "recipient",
          "type": "address"
        },
        {
          "internalType": "uint256",
          "name": "amount",
          "type": "uint256"
        }
      ],
      "name": "transfer",
      "outputs": [
        {
          "internalType": "bool",
          "name": "",
          "type": "bool"
        }
      ],
      "stateMutability": "nonpayable",
      "type": "function"
    },
    {
      "inputs": [
        {
          "internalType": "address",
          "name": "sender",
          "type": "address"
        },
        {
          "internalType": "address",
          "name": "recipient",
          "type": "address"
        },
        {
          "internalType": "uint256",
          "name": "amount",
          "type": "uint256"
        }
      ],
      "name": "transferFrom",
      "outputs": [
        {
          "internalType": "bool",
          "name": "",
          "type": "bool"
        }
      ],
      "stateMutability": "nonpayable",
      "type": "function"
    },
    {
      "inputs": [
        {
          "internalType": "address",
          "name": "newOwner",
          "type": "address"
        }
      ],
      "name": "transferOwnership",
      "outputs": [],
      "stateMutability": "nonpayable",
      "type": "function"
    }
  ],
  "bytecode": "0x60806040523480156200001157600080fd5b506040518060400160405280600b81526020017f4d656c6b6579546f6b656e0000000000000000000000000000000000000000008152506040518060400160405280600481526020017f4d454c4b00000000000000000000000000000000000000000000000000000000815250816003908051906020019062000096929190620001a6565b508060049080519060200190620000af929190620001a6565b505050620000d2620000c6620000d860201b60201c565b620000e060201b60201c565b620002bb565b600033905090565b6000600560009054906101000a900473ffffffffffffffffffffffffffffffffffffffff16905081600560006101000a81548173ffffffffffffffffffffffffffffffffffffffff021916908373ffffffffffffffffffffffffffffffffffffffff1602179055508173ffffffffffffffffffffffffffffffffffffffff168173ffffffffffffffffffffffffffffffffffffffff167f8be0079c531659141344cd1fd0a4f28419497f9722a3daafe3b4186f6b6457e060405160405180910390a35050565b828054620001b49062000256565b90600052602060002090601f016020900481019282620001d8576000855562000224565b82601f10620001f357805160ff191683800117855562000224565b8280016001018555821562000224579182015b828111156200022357825182559160200191906001019062000206565b5b50905062000233919062000237565b5090565b5b808211156200025257600081600090555060010162000238565b5090565b600060028204905060018216806200026f57607f821691505b602082108114156200028657620002856200028c565b5b50919050565b7f4e487b7100000000000000000000000000000000000000000000000000000000600052602260045260246000fd5b611dec80620002cb6000396000f3fe608060405234801561001057600080fd5b506004361061010b5760003560e01c806370a08231116100a257806395d89b411161007157806395d89b41146102a8578063a457c2d7146102c6578063a9059cbb146102f6578063dd62ed3e14610326578063f2fde38b146103565761010b565b806370a0823114610232578063715018a614610262578063893d20e81461026c5780638da5cb5b1461028a5761010b565b8063313ce567116100de578063313ce567146101ac57806339509351146101ca57806340c10f19146101fa57806342966c68146102165761010b565b806306fdde0314610110578063095ea7b31461012e57806318160ddd1461015e57806323b872dd1461017c575b600080fd5b610118610372565b6040516101259190611679565b60405180910390f35b610148600480360381019061014391906113c5565b610404565b604051610155919061165e565b60405180910390f35b610166610422565b604051610173919061181b565b60405180910390f35b61019660048036038101906101919190611376565b61042c565b6040516101a3919061165e565b60405180910390f35b6101b4610524565b6040516101c19190611836565b60405180910390f35b6101e460048036038101906101df91906113c5565b61052d565b6040516101f1919061165e565b60405180910390f35b610214600480360381019061020f91906113c5565b6105d9565b005b610230600480360381019061022b9190611401565b610663565b005b61024c60048036038101906102479190611311565b610670565b604051610259919061181b565b60405180910390f35b61026a6106b8565b005b610274610740565b6040516102819190611643565b60405180910390f35b610292610748565b60405161029f9190611643565b60405180910390f35b6102b0610772565b6040516102bd9190611679565b60405180910390f35b6102e060048036038101906102db91906113c5565b610804565b6040516102ed919061165e565b60405180910390f35b610310600480360381019061030b91906113c5565b6108ef565b60405161031d919061165e565b60405180910390f35b610340600480360381019061033b919061133a565b61090d565b60405161034d919061181b565b60405180910390f35b610370600480360381019061036b9190611311565b610994565b005b6060600380546103819061197f565b80601f01602080910402602001604051908101604052809291908181526020018280546103ad9061197f565b80156103fa5780601f106103cf576101008083540402835291602001916103fa565b820191906000526020600020905b8154815290600101906020018083116103dd57829003601f168201915b5050505050905090565b6000610418610411610a8c565b8484610a94565b6001905092915050565b6000600254905090565b6000610439848484610c5f565b6000600160008673ffffffffffffffffffffffffffffffffffffffff1673ffffffffffffffffffffffffffffffffffffffff1681526020019081526020016000206000610484610a8c565b73ffffffffffffffffffffffffffffffffffffffff1673ffffffffffffffffffffffffffffffffffffffff16815260200190815260200160002054905082811015610504576040517f08c379a00000000000000000000000000000000000000000000000000000000081526004016104fb9061173b565b60405180910390fd5b61051885610510610a8c565b858403610a94565b60019150509392505050565b60006012905090565b60006105cf61053a610a8c565b848460016000610548610a8c565b73ffffffffffffffffffffffffffffffffffffffff1673ffffffffffffffffffffffffffffffffffffffff16815260200190815260200160002060008873ffffffffffffffffffffffffffffffffffffffff1673ffffffffffffffffffffffffffffffffffffffff168152602001908152602001600020546105ca919061186d565b610a94565b6001905092915050565b6105e1610a8c565b73ffffffffffffffffffffffffffffffffffffffff166105ff610748565b73ffffffffffffffffffffffffffffffffffffffff1614610655576040517f08c379a000000000000000000000000000000000000000000000000000000000815260040161064c9061175b565b60405180910390fd5b61065f8282610ee0565b5050565b61066d3382611040565b50565b60008060008373ffffffffffffffffffffffffffffffffffffffff1673ffffffffffffffffffffffffffffffffffffffff168152602001908152602001600020549050919050565b6106c0610a8c565b73ffffffffffffffffffffffffffffffffffffffff166106de610748565b73ffffffffffffffffffffffffffffffffffffffff1614610734576040517f08c379a000000000000000000000000000000000000000000000000000000000815260040161072b9061175b565b60405180910390fd5b61073e6000611217565b565b600033905090565b6000600560009054906101000a900473ffffffffffffffffffffffffffffffffffffffff16905090565b6060600480546107819061197f565b80601f01602080910402602001604051908101604052809291908181526020018280546107ad9061197f565b80156107fa5780601f106107cf576101008083540402835291602001916107fa565b820191906000526020600020905b8154815290600101906020018083116107dd57829003601f168201915b5050505050905090565b60008060016000610813610a8c565b73ffffffffffffffffffffffffffffffffffffffff1673ffffffffffffffffffffffffffffffffffffffff16815260200190815260200160002060008573ffffffffffffffffffffffffffffffffffffffff1673ffffffffffffffffffffffffffffffffffffffff168152602001908152602001600020549050828110156108d0576040517f08c379a00000000000000000000000000000000000000000000000000000000081526004016108c7906117db565b60405180910390fd5b6108e46108db610a8c565b85858403610a94565b600191505092915050565b60006109036108fc610a8c565b8484610c5f565b6001905092915050565b6000600160008473ffffffffffffffffffffffffffffffffffffffff1673ffffffffffffffffffffffffffffffffffffffff16815260200190815260200160002060008373ffffffffffffffffffffffffffffffffffffffff1673ffffffffffffffffffffffffffffffffffffffff16815260200190815260200160002054905092915050565b61099c610a8c565b73ffffffffffffffffffffffffffffffffffffffff166109ba610748565b73ffffffffffffffffffffffffffffffffffffffff1614610a10576040517f08c379a0000000000000000000000000000000000000000000000000000000008152600401610a079061175b565b60405180910390fd5b600073ffffffffffffffffffffffffffffffffffffffff168173ffffffffffffffffffffffffffffffffffffffff161415610a80576040517f08c379a0000000000000000000000000000000000000000000000000000000008152600401610a77906116db565b60405180910390fd5b610a8981611217565b50565b600033905090565b600073ffffffffffffffffffffffffffffffffffffffff168373ffffffffffffffffffffffffffffffffffffffff161415610b04576040517f08c379a0000000000000000000000000000000000000000000000000000000008152600401610afb906117bb565b60405180910390fd5b600073ffffffffffffffffffffffffffffffffffffffff168273ffffffffffffffffffffffffffffffffffffffff161415610b74576040517f08c379a0000000000000000000000000000000000000000000000000000000008152600401610b6b906116fb565b60405180910390fd5b80600160008573ffffffffffffffffffffffffffffffffffffffff1673ffffffffffffffffffffffffffffffffffffffff16815260200190815260200160002060008473ffffffffffffffffffffffffffffffffffffffff1673ffffffffffffffffffffffffffffffffffffffff168152602001908152602001600020819055508173ffffffffffffffffffffffffffffffffffffffff168373ffffffffffffffffffffffffffffffffffffffff167f8c5be1e5ebec7d5bd14f71427d1e84f3dd0314c0f7b2291e5b200ac8c7c3b92583604051610c52919061181b565b60405180910390a3505050565b600073ffffffffffffffffffffffffffffffffffffffff168373ffffffffffffffffffffffffffffffffffffffff161415610ccf576040517f08c379a0000000000000000000000000000000000000000000000000000000008152600401610cc69061179b565b60405180910390fd5b600073ffffffffffffffffffffffffffffffffffffffff168273ffffffffffffffffffffffffffffffffffffffff161415610d3f576040517f08c379a0000000000000000000000000000000000000000000000000000000008152600401610d369061169b565b60405180910390fd5b610d4a8383836112dd565b60008060008573ffffffffffffffffffffffffffffffffffffffff1673ffffffffffffffffffffffffffffffffffffffff16815260200190815260200160002054905081811015610dd0576040517f08c379a0000000000000000000000000000000000000000000000000000000008152600401610dc79061171b565b60405180910390fd5b8181036000808673ffffffffffffffffffffffffffffffffffffffff1673ffffffffffffffffffffffffffffffffffffffff16815260200190815260200160002081905550816000808573ffffffffffffffffffffffffffffffffffffffff1673ffffffffffffffffffffffffffffffffffffffff1681526020019081526020016000206000828254610e63919061186d565b925050819055508273ffffffffffffffffffffffffffffffffffffffff168473ffffffffffffffffffffffffffffffffffffffff167fddf252ad1be2c89b69c2b068fc378daa952ba7f163c4a11628f55a4df523b3ef84604051610ec7919061181b565b60405180910390a3610eda8484846112e2565b50505050565b600073ffffffffffffffffffffffffffffffffffffffff168273ffffffffffffffffffffffffffffffffffffffff161415610f50576040517f08c379a0000000000000000000000000000000000000000000000000000000008152600401610f47906117fb565b60405180910390fd5b610f5c600083836112dd565b8060026000828254610f6e919061186d565b92505081905550806000808473ffffffffffffffffffffffffffffffffffffffff1673ffffffffffffffffffffffffffffffffffffffff1681526020019081526020016000206000828254610fc3919061186d565b925050819055508173ffffffffffffffffffffffffffffffffffffffff16600073ffffffffffffffffffffffffffffffffffffffff167fddf252ad1be2c89b69c2b068fc378daa952ba7f163c4a11628f55a4df523b3ef83604051611028919061181b565b60405180910390a361103c600083836112e2565b5050565b600073ffffffffffffffffffffffffffffffffffffffff168273ffffffffffffffffffffffffffffffffffffffff1614156110b0576040517f08c379a00000000000000000000000000000000000000000000000000000000081526004016110a79061177b565b60405180910390fd5b6110bc826000836112dd565b60008060008473ffffffffffffffffffffffffffffffffffffffff1673ffffffffffffffffffffffffffffffffffffffff16815260200190815260200160002054905081811015611142576040517f08c379a0000000000000000000000000000000000000000000000000000000008152600401611139906116bb565b60405180910390fd5b8181036000808573ffffffffffffffffffffffffffffffffffffffff1673ffffffffffffffffffffffffffffffffffffffff16815260200190815260200160002081905550816002600082825461119991906118c3565b92505081905550600073ffffffffffffffffffffffffffffffffffffffff168373ffffffffffffffffffffffffffffffffffffffff167fddf252ad1be2c89b69c2b068fc378daa952ba7f163c4a11628f55a4df523b3ef846040516111fe919061181b565b60405180910390a3611212836000846112e2565b505050565b6000600560009054906101000a900473ffffffffffffffffffffffffffffffffffffffff16905081600560006101000a81548173ffffffffffffffffffffffffffffffffffffffff021916908373ffffffffffffffffffffffffffffffffffffffff1602179055508173ffffffffffffffffffffffffffffffffffffffff168173ffffffffffffffffffffffffffffffffffffffff167f8be0079c531659141344cd1fd0a4f28419497f9722a3daafe3b4186f6b6457e060405160405180910390a35050565b505050565b505050565b6000813590506112f681611d88565b92915050565b60008135905061130b81611d9f565b92915050565b60006020828403121561132357600080fd5b6000611331848285016112e7565b91505092915050565b6000806040838503121561134d57600080fd5b600061135b858286016112e7565b925050602061136c858286016112e7565b9150509250929050565b60008060006060848603121561138b57600080fd5b6000611399868287016112e7565b93505060206113aa868287016112e7565b92505060406113bb868287016112fc565b9150509250925092565b600080604083850312156113d857600080fd5b60006113e6858286016112e7565b92505060206113f7858286016112fc565b9150509250929050565b60006020828403121561141357600080fd5b6000611421848285016112fc565b91505092915050565b611433816118f7565b82525050565b61144281611909565b82525050565b600061145382611851565b61145d818561185c565b935061146d81856020860161194c565b61147681611a0f565b840191505092915050565b600061148e60238361185c565b915061149982611a20565b604082019050919050565b60006114b160228361185c565b91506114bc82611a6f565b604082019050919050565b60006114d460268361185c565b91506114df82611abe565b604082019050919050565b60006114f760228361185c565b915061150282611b0d565b604082019050919050565b600061151a60268361185c565b915061152582611b5c565b604082019050919050565b600061153d60288361185c565b915061154882611bab565b604082019050919050565b600061156060208361185c565b915061156b82611bfa565b602082019050919050565b600061158360218361185c565b915061158e82611c23565b604082019050919050565b60006115a660258361185c565b91506115b182611c72565b604082019050919050565b60006115c960248361185c565b91506115d482611cc1565b604082019050919050565b60006115ec60258361185c565b91506115f782611d10565b604082019050919050565b600061160f601f8361185c565b915061161a82611d5f565b602082019050919050565b61162e81611935565b82525050565b61163d8161193f565b82525050565b6000602082019050611658600083018461142a565b92915050565b60006020820190506116736000830184611439565b92915050565b600060208201905081810360008301526116938184611448565b905092915050565b600060208201905081810360008301526116b481611481565b9050919050565b600060208201905081810360008301526116d4816114a4565b9050919050565b600060208201905081810360008301526116f4816114c7565b9050919050565b60006020820190508181036000830152611714816114ea565b9050919050565b600060208201905081810360008301526117348161150d565b9050919050565b6000602082019050818103600083015261175481611530565b9050919050565b6000602082019050818103600083015261177481611553565b9050919050565b6000602082019050818103600083015261179481611576565b9050919050565b600060208201905081810360008301526117b481611599565b9050919050565b600060208201905081810360008301526117d4816115bc565b9050919050565b600060208201905081810360008301526117f4816115df565b9050919050565b6000602082019050818103600083015261181481611602565b9050919050565b60006020820190506118306000830184611625565b92915050565b600060208201905061184b6000830184611634565b92915050565b600081519050919050565b600082825260208201905092915050565b600061187882611935565b915061188383611935565b9250827fffffffffffffffffffffffffffffffffffffffffffffffffffffffffffffffff038211156118b8576118b76119b1565b5b828201905092915050565b60006118ce82611935565b91506118d983611935565b9250828210156118ec576118eb6119b1565b5b828203905092915050565b600061190282611915565b9050919050565b60008115159050919050565b600073ffffffffffffffffffffffffffffffffffffffff82169050919050565b6000819050919050565b600060ff82169050919050565b60005b8381101561196a57808201518184015260208101905061194f565b83811115611979576000848401525b50505050565b6000600282049050600182168061199757607f821691505b602082108114156119ab576119aa6119e0565b5b50919050565b7f4e487b7100000000000000000000000000000000000000000000000000000000600052601160045260246000fd5b7f4e487b7100000000000000000000000000000000000000000000000000000000600052602260045260246000fd5b6000601f19601f8301169050919050565b7f45524332303a207472616e7366657220746f20746865207a65726f206164647260008201527f6573730000000000000000000000000000000000000000000000000000000000602082015250565b7f45524332303a206275726e20616d6f756e7420657863656564732062616c616e60008201527f6365000000000000000000000000000000000000000000000000000000000000602082015250565b7f4f776e61626c653a206e6577206f776e657220697320746865207a65726f206160008201527f6464726573730000000000000000000000000000000000000000000000000000602082015250565b7f45524332303a20617070726f766520746f20746865207a65726f20616464726560008201527f7373000000000000000000000000000000000000000000000000000000000000602082015250565b7f45524332303a207472616e7366657220616d6f756e742065786365656473206260008201527f616c616e63650000000000000000000000000000000000000000000000000000602082015250565b7f45524332303a207472616e7366657220616d6f756e742065786365656473206160008201527f6c6c6f77616e6365000000000000000000000000000000000000000000000000602082015250565b7f4f776e61626c653a2063616c6c6572206973206e6f7420746865206f776e6572600082015250565b7f45524332303a206275726e2066726f6d20746865207a65726f2061646472657360008201527f7300000000000000000000000000000000000000000000000000000000000000602082015250565b7f45524332303a207472616e736665722066726f6d20746865207a65726f20616460008201527f6472657373000000000000000000000000000000000000000000000000000000602082015250565b7f45524332303a20617070726f76652066726f6d20746865207a65726f2061646460008201527f7265737300000000000000000000000000000000000000000000000000000000602082015250565b7f45524332303a2064656372656173656420616c6c6f77616e63652062656c6f7760008201527f207a65726f000000000000000000000000000000000000000000000000000000602082015250565b7f45524332303a206d696e7420746f20746865207a65726f206164647265737300600082015250565b611d91816118f7565b8114611d9c57600080fd5b50565b611da881611935565b8114611db357600080fd5b5056fea2646970667358221220a86877fe07fc6900e8071602456bc58ef028114e97532ad200966ad553452e5b64736f6c63430008040033",
  "linkReferences": {},
  "deployedLinkReferences": {}
}